{
  "_format": "hh-sol-artifact-1",
  "contractName": "StudentInformationSystem",
  "sourceName": "contracts/StudentInformationSystem.sol",
  "abi": [
    {
      "inputs": [],
      "stateMutability": "nonpayable",
      "type": "constructor"
    },
    {
      "anonymous": false,
      "inputs": [
        {
          "indexed": true,
          "internalType": "uint256",
          "name": "usn",
          "type": "uint256"
        },
        {
          "indexed": false,
          "internalType": "string",
          "name": "course",
          "type": "string"
        },
        {
          "indexed": false,
          "internalType": "uint256",
          "name": "attendance",
          "type": "uint256"
        }
      ],
      "name": "AttendanceUpdated",
      "type": "event"
    },
    {
      "anonymous": false,
      "inputs": [
        {
          "indexed": true,
          "internalType": "uint256",
          "name": "usn",
          "type": "uint256"
        },
        {
          "indexed": false,
          "internalType": "string",
          "name": "course",
          "type": "string"
        },
        {
          "indexed": false,
          "internalType": "uint256",
          "name": "grade",
          "type": "uint256"
        }
      ],
      "name": "GradeUpdated",
      "type": "event"
    },
    {
      "anonymous": false,
      "inputs": [
        {
          "indexed": true,
          "internalType": "uint256",
          "name": "usn",
          "type": "uint256"
        },
        {
          "indexed": false,
          "internalType": "string",
          "name": "name",
          "type": "string"
        }
      ],
      "name": "StudentAdded",
      "type": "event"
    },
    {
      "inputs": [
        {
          "internalType": "uint256",
          "name": "_usn",
          "type": "uint256"
        },
        {
          "internalType": "string",
          "name": "_name",
          "type": "string"
        },
        {
          "internalType": "string",
          "name": "_minor",
          "type": "string"
        }
      ],
      "name": "addStudent",
      "outputs": [],
      "stateMutability": "payable",
      "type": "function"
    },
    {
      "inputs": [],
      "name": "admissionFee",
      "outputs": [
        {
          "internalType": "uint256",
          "name": "",
          "type": "uint256"
        }
      ],
      "stateMutability": "view",
      "type": "function"
    },
    {
      "inputs": [
        {
          "internalType": "uint256",
          "name": "_usn",
          "type": "uint256"
        },
        {
          "internalType": "string",
          "name": "_course",
          "type": "string"
        }
      ],
      "name": "getStudentAttendance",
      "outputs": [
        {
          "internalType": "uint256",
          "name": "",
          "type": "uint256"
        }
      ],
      "stateMutability": "view",
      "type": "function"
    },
    {
      "inputs": [
        {
          "internalType": "uint256",
          "name": "_usn",
          "type": "uint256"
        },
        {
          "internalType": "string",
          "name": "_course",
          "type": "string"
        }
      ],
      "name": "getStudentGrade",
      "outputs": [
        {
          "internalType": "uint256",
          "name": "",
          "type": "uint256"
        }
      ],
      "stateMutability": "view",
      "type": "function"
    },
    {
      "inputs": [],
      "name": "getStudentUSNs",
      "outputs": [
        {
          "internalType": "uint256[]",
          "name": "",
          "type": "uint256[]"
        }
      ],
      "stateMutability": "view",
      "type": "function"
    },
    {
      "inputs": [],
      "name": "owner",
      "outputs": [
        {
          "internalType": "address",
          "name": "",
          "type": "address"
        }
      ],
      "stateMutability": "view",
      "type": "function"
    },
    {
      "inputs": [
        {
          "internalType": "uint256",
          "name": "",
          "type": "uint256"
        },
        {
          "internalType": "string",
          "name": "",
          "type": "string"
        }
      ],
      "name": "studentAttendance",
      "outputs": [
        {
          "internalType": "uint256",
          "name": "",
          "type": "uint256"
        }
      ],
      "stateMutability": "view",
      "type": "function"
    },
    {
      "inputs": [
        {
          "internalType": "uint256",
          "name": "",
          "type": "uint256"
        },
        {
          "internalType": "string",
          "name": "",
          "type": "string"
        }
      ],
      "name": "studentGrades",
      "outputs": [
        {
          "internalType": "uint256",
          "name": "",
          "type": "uint256"
        }
      ],
      "stateMutability": "view",
      "type": "function"
    },
    {
      "inputs": [
        {
          "internalType": "uint256",
          "name": "",
          "type": "uint256"
        }
      ],
      "name": "studentUSNs",
      "outputs": [
        {
          "internalType": "uint256",
          "name": "",
          "type": "uint256"
        }
      ],
      "stateMutability": "view",
      "type": "function"
    },
    {
      "inputs": [
        {
          "internalType": "uint256",
          "name": "",
          "type": "uint256"
        }
      ],
      "name": "students",
      "outputs": [
        {
          "internalType": "uint256",
          "name": "usn",
          "type": "uint256"
        },
        {
          "internalType": "string",
          "name": "name",
          "type": "string"
        },
        {
          "internalType": "string",
          "name": "minor",
          "type": "string"
        }
      ],
      "stateMutability": "view",
      "type": "function"
    },
    {
      "inputs": [
        {
          "internalType": "uint256",
          "name": "_usn",
          "type": "uint256"
        },
        {
          "internalType": "string",
          "name": "_course",
          "type": "string"
        },
        {
          "internalType": "uint256",
          "name": "_attendance",
          "type": "uint256"
        }
      ],
      "name": "updateAttendance",
      "outputs": [],
      "stateMutability": "nonpayable",
      "type": "function"
    },
    {
      "inputs": [
        {
          "internalType": "uint256",
          "name": "_usn",
          "type": "uint256"
        },
        {
          "internalType": "string",
          "name": "_course",
          "type": "string"
        },
        {
          "internalType": "uint256",
          "name": "_grade",
          "type": "uint256"
        }
      ],
      "name": "updateGrade",
      "outputs": [],
      "stateMutability": "nonpayable",
      "type": "function"
    }
  ],
  "bytecode": "0x608060405234801561001057600080fd5b50336000806101000a81548173ffffffffffffffffffffffffffffffffffffffff021916908373ffffffffffffffffffffffffffffffffffffffff1602179055506001808190555061185f806100676000396000f3fe6080604052600436106100a75760003560e01c806371138c371161006457806371138c37146101c1578063773144d8146101ec5780638da5cb5b14610229578063ee1240a614610254578063f975ef1914610291578063fbd4849f146102ce576100a7565b806306ead22e146100ac578063171d0c97146100eb57806341712d0014610116578063473e99141461013f57806350fad8001461015b57806361dfbaaf14610198575b600080fd5b3480156100b857600080fd5b506100d360048036038101906100ce9190610eea565b61030b565b6040516100e2939291906115ed565b60405180910390f35b3480156100f757600080fd5b50610100610445565b60405161010d91906115d2565b60405180910390f35b34801561012257600080fd5b5061013d60048036038101906101389190610fe6565b61044b565b005b61015960048036038101906101549190610f67565b61062d565b005b34801561016757600080fd5b50610182600480360381019061017d9190610f13565b6108e8565b60405161018f91906115d2565b60405180910390f35b3480156101a457600080fd5b506101bf60048036038101906101ba9190610fe6565b61097b565b005b3480156101cd57600080fd5b506101d6610b5d565b6040516101e3919061143e565b60405180910390f35b3480156101f857600080fd5b50610213600480360381019061020e9190610f13565b610bb5565b60405161022091906115d2565b60405180910390f35b34801561023557600080fd5b5061023e610bf0565b60405161024b9190611423565b60405180910390f35b34801561026057600080fd5b5061027b60048036038101906102769190610f13565b610c14565b60405161028891906115d2565b60405180910390f35b34801561029d57600080fd5b506102b860048036038101906102b39190610f13565b610c4f565b6040516102c591906115d2565b60405180910390f35b3480156102da57600080fd5b506102f560048036038101906102f09190610eea565b610ce2565b60405161030291906115d2565b60405180910390f35b600260205280600052604060002060009150905080600001549080600101805461033490611771565b80601f016020809104026020016040519081016040528092919081815260200182805461036090611771565b80156103ad5780601f10610382576101008083540402835291602001916103ad565b820191906000526020600020905b81548152906001019060200180831161039057829003601f168201915b5050505050908060020180546103c290611771565b80601f01602080910402602001604051908101604052809291908181526020018280546103ee90611771565b801561043b5780601f106104105761010080835404028352916020019161043b565b820191906000526020600020905b81548152906001019060200180831161041e57829003601f168201915b5050505050905083565b60015481565b60008054906101000a900473ffffffffffffffffffffffffffffffffffffffff1673ffffffffffffffffffffffffffffffffffffffff163373ffffffffffffffffffffffffffffffffffffffff16146104d9576040517f08c379a00000000000000000000000000000000000000000000000000000000081526004016104d0906114d2565b60405180910390fd5b600060026000858152602001908152602001600020600001541415610533576040517f08c379a000000000000000000000000000000000000000000000000000000000815260040161052a90611552565b60405180910390fd5b6064811115610577576040517f08c379a000000000000000000000000000000000000000000000000000000000815260040161056e906114f2565b60405180910390fd5b600081116105ba576040517f08c379a00000000000000000000000000000000000000000000000000000000081526004016105b190611512565b60405180910390fd5b8060036000858152602001908152602001600020836040516105dc919061140c565b908152602001604051809103902081905550827ff278f9bd4ec8ff0a2ee5ea0e9902e03658c331e0a584ad31fe3d9b2fb6a7c1c38383604051610620929190611482565b60405180910390a2505050565b600154341015610672576040517f08c379a000000000000000000000000000000000000000000000000000000000815260040161066990611532565b60405180910390fd5b60008314156106b6576040517f08c379a00000000000000000000000000000000000000000000000000000000081526004016106ad906115b2565b60405180910390fd5b600060026000858152602001908152602001600020600001541461070f576040517f08c379a000000000000000000000000000000000000000000000000000000000815260040161070690611572565b60405180910390fd5b60008054906101000a900473ffffffffffffffffffffffffffffffffffffffff1673ffffffffffffffffffffffffffffffffffffffff166108fc349081150290604051600060405180830381858888f19350505050158015610775573d6000803e3d6000fd5b506040518060800160405280848152602001838152602001828152602001600067ffffffffffffffff8111156107d4577f4e487b7100000000000000000000000000000000000000000000000000000000600052604160045260246000fd5b60405190808252806020026020018201604052801561080757816020015b60608152602001906001900390816107f25790505b5081525060026000858152602001908152602001600020600082015181600001556020820151816001019080519060200190610844929190610d06565b506040820151816002019080519060200190610861929190610d06565b50606082015181600301908051906020019061087e929190610d8c565b509050506005839080600181540180825580915050600190039060005260206000200160009091909190915055827f9682c9a3e9734a1f8d3a641838a5d7862f4eb29fcbf4bd04e0ccac28ffcfd227836040516108db9190611460565b60405180910390a2505050565b60008060026000858152602001908152602001600020600001541415610943576040517f08c379a000000000000000000000000000000000000000000000000000000000815260040161093a90611552565b60405180910390fd5b6004600084815260200190815260200160002082604051610964919061140c565b908152602001604051809103902054905092915050565b60008054906101000a900473ffffffffffffffffffffffffffffffffffffffff1673ffffffffffffffffffffffffffffffffffffffff163373ffffffffffffffffffffffffffffffffffffffff1614610a09576040517f08c379a0000000000000000000000000000000000000000000000000000000008152600401610a00906114d2565b60405180910390fd5b600060026000858152602001908152602001600020600001541415610a63576040517f08c379a0000000000000000000000000000000000000000000000000000000008152600401610a5a90611552565b60405180910390fd5b600a811115610aa7576040517f08c379a0000000000000000000000000000000000000000000000000000000008152600401610a9e906114b2565b60405180910390fd5b60008111610aea576040517f08c379a0000000000000000000000000000000000000000000000000000000008152600401610ae190611592565b60405180910390fd5b806004600085815260200190815260200160002083604051610b0c919061140c565b908152602001604051809103902081905550827f4789cecbe7acfc331c4399d65a0e7bbe1da27160fb7bd19cd43874ae76fe34078383604051610b50929190611482565b60405180910390a2505050565b60606005805480602002602001604051908101604052809291908181526020018280548015610bab57602002820191906000526020600020905b815481526020019060010190808311610b97575b5050505050905090565b600360205281600052604060002081805160208101820180518482526020830160208501208183528095505050505050600091509150505481565b60008054906101000a900473ffffffffffffffffffffffffffffffffffffffff1681565b600460205281600052604060002081805160208101820180518482526020830160208501208183528095505050505050600091509150505481565b60008060026000858152602001908152602001600020600001541415610caa576040517f08c379a0000000000000000000000000000000000000000000000000000000008152600401610ca190611552565b60405180910390fd5b6003600084815260200190815260200160002082604051610ccb919061140c565b908152602001604051809103902054905092915050565b60058181548110610cf257600080fd5b906000526020600020016000915090505481565b828054610d1290611771565b90600052602060002090601f016020900481019282610d345760008555610d7b565b82601f10610d4d57805160ff1916838001178555610d7b565b82800160010185558215610d7b579182015b82811115610d7a578251825591602001919060010190610d5f565b5b509050610d889190610dec565b5090565b828054828255906000526020600020908101928215610ddb579160200282015b82811115610dda578251829080519060200190610dca929190610d06565b5091602001919060010190610dac565b5b509050610de89190610e09565b5090565b5b80821115610e05576000816000905550600101610ded565b5090565b5b80821115610e295760008181610e209190610e2d565b50600101610e0a565b5090565b508054610e3990611771565b6000825580601f10610e4b5750610e6a565b601f016020900490600052602060002090810190610e699190610dec565b5b50565b6000610e80610e7b84611663565b611632565b905082815260208101848484011115610e9857600080fd5b610ea384828561172f565b509392505050565b600082601f830112610ebc57600080fd5b8135610ecc848260208601610e6d565b91505092915050565b600081359050610ee481611812565b92915050565b600060208284031215610efc57600080fd5b6000610f0a84828501610ed5565b91505092915050565b60008060408385031215610f2657600080fd5b6000610f3485828601610ed5565b925050602083013567ffffffffffffffff811115610f5157600080fd5b610f5d85828601610eab565b9150509250929050565b600080600060608486031215610f7c57600080fd5b6000610f8a86828701610ed5565b935050602084013567ffffffffffffffff811115610fa757600080fd5b610fb386828701610eab565b925050604084013567ffffffffffffffff811115610fd057600080fd5b610fdc86828701610eab565b9150509250925092565b600080600060608486031215610ffb57600080fd5b600061100986828701610ed5565b935050602084013567ffffffffffffffff81111561102657600080fd5b61103286828701610eab565b925050604061104386828701610ed5565b9150509250925092565b600061105983836113ee565b60208301905092915050565b61106e816116f3565b82525050565b600061107f826116a3565b61108981856116c6565b935061109483611693565b8060005b838110156110c55781516110ac888261104d565b97506110b7836116b9565b925050600181019050611098565b5085935050505092915050565b60006110dd826116ae565b6110e781856116d7565b93506110f781856020860161173e565b61110081611801565b840191505092915050565b6000611116826116ae565b61112081856116e8565b935061113081856020860161173e565b80840191505092915050565b60006111496017836116d7565b91507f47726164652063616e6e6f74206578636565642031302e0000000000000000006000830152602082019050919050565b6000611189602a836116d7565b91507f4f6e6c7920746865206f776e65722063616e20706572666f726d20746869732060008301527f6f7065726174696f6e2e000000000000000000000000000000000000000000006020830152604082019050919050565b60006111ef601d836116d7565b91507f417474656e64616e63652063616e6e6f7420657863656564203130302e0000006000830152602082019050919050565b600061122f601e836116d7565b91507f417474656e64616e63652063616e6e6f74206265206e656761746976652e00006000830152602082019050919050565b600061126f601b836116d7565b91507f496e73756666696369656e742061646d697373696f6e206665652e00000000006000830152602082019050919050565b60006112af6025836116d7565b91507f53747564656e74207769746820746869732055534e20646f6573206e6f74206560008301527f786973742e0000000000000000000000000000000000000000000000000000006020830152604082019050919050565b60006113156025836116d7565b91507f53747564656e74207769746820746869732055534e20616c726561647920657860008301527f697374732e0000000000000000000000000000000000000000000000000000006020830152604082019050919050565b600061137b6019836116d7565b91507f47726164652063616e6e6f74206265206e656761746976652e000000000000006000830152602082019050919050565b60006113bb6013836116d7565b91507f55534e2063616e6e6f74206265207a65726f2e000000000000000000000000006000830152602082019050919050565b6113f781611725565b82525050565b61140681611725565b82525050565b6000611418828461110b565b915081905092915050565b60006020820190506114386000830184611065565b92915050565b600060208201905081810360008301526114588184611074565b905092915050565b6000602082019050818103600083015261147a81846110d2565b905092915050565b6000604082019050818103600083015261149c81856110d2565b90506114ab60208301846113fd565b9392505050565b600060208201905081810360008301526114cb8161113c565b9050919050565b600060208201905081810360008301526114eb8161117c565b9050919050565b6000602082019050818103600083015261150b816111e2565b9050919050565b6000602082019050818103600083015261152b81611222565b9050919050565b6000602082019050818103600083015261154b81611262565b9050919050565b6000602082019050818103600083015261156b816112a2565b9050919050565b6000602082019050818103600083015261158b81611308565b9050919050565b600060208201905081810360008301526115ab8161136e565b9050919050565b600060208201905081810360008301526115cb816113ae565b9050919050565b60006020820190506115e760008301846113fd565b92915050565b600060608201905061160260008301866113fd565b818103602083015261161481856110d2565b9050818103604083015261162881846110d2565b9050949350505050565b6000604051905081810181811067ffffffffffffffff82111715611659576116586117d2565b5b8060405250919050565b600067ffffffffffffffff82111561167e5761167d6117d2565b5b601f19601f8301169050602081019050919050565b6000819050602082019050919050565b600081519050919050565b600081519050919050565b6000602082019050919050565b600082825260208201905092915050565b600082825260208201905092915050565b600081905092915050565b60006116fe82611705565b9050919050565b600073ffffffffffffffffffffffffffffffffffffffff82169050919050565b6000819050919050565b82818337600083830152505050565b60005b8381101561175c578082015181840152602081019050611741565b8381111561176b576000848401525b50505050565b6000600282049050600182168061178957607f821691505b6020821081141561179d5761179c6117a3565b5b50919050565b7f4e487b7100000000000000000000000000000000000000000000000000000000600052602260045260246000fd5b7f4e487b7100000000000000000000000000000000000000000000000000000000600052604160045260246000fd5b6000601f19601f8301169050919050565b61181b81611725565b811461182657600080fd5b5056fea26469706673582212208fa0aaf6e7dd278f11ac73a4055e8ddc1b0971d63343da16c9de7edcd110a3ab64736f6c63430008000033",
  "linkReferences": {},
  "deployedLinkReferences": {}
}